:1000000049C087C060C05FC05EC05DC05CC05BC0EF
:100010005AC059C058C057C056C055C054C053C02C
:1000200052C051C050C000CDD914F13C28E5A16C9C
:1000300078B5509D89441603560069007300680026
:10004000770061006E0061007400680016035400C0
:1000500069006E0079002000530065007200760090
:100060006F000A0330003000300037001201010138
:10007000FF0000086666070006010102030109028D
:10008000120001010080C80904000000FF00000008
:100090000403090411241FBECFEDCDBF10E0A0E67C
:1000A000B0E0E2EAF6E002C005900D92A236B10798
:1000B000D9F710E0A2E6B0E001C01D92AE38B1075A
:1000C000E1F7D7D2ECC29CCFDC019FEF8FEF46E285
:1000D000F0E018C02D918227E82FEF70E40F3591E2
:1000E000E82FE295892F932F3170E327EF709295D7
:1000F000392F9F70307E8327E40F3591932731701D
:10010000932783276A9532F7809590958D939D93D9
:1001100008950F931F932F93DF93CF930FB70F93F0
:100120008299FECF82990BC0829909C0829907C03B
:10013000829905C0829903C000E40ABFACC0C09197
:100140007600DD27C958DF4F0BE014E124E0829BE5
:10015000E9CF3F934F936F9360B330E803C060B330
:10016000432B4993442764712627215020B32471DF
:10017000A9F137953C3FA0F56227615060B36471E7
:1001800037953C3F98F526272150379520B32471A9
:100190003C3F90F56227615037953C3F60B36471F6
:1001A000A0F52627215037953C3FC8F520B3247190
:1001B0006227615037953C3FB0F50A9560B37AF0FD
:1001C00064712627215037953C3F88F520B3247170
:1001D0006227615037953C3F10F22DC031C052C0AC
:1001E000612720B324713F774160C6CF3F774260DB
:1001F00060B364712127C7CF3F774460612720B384
:100200002471622761503795C8CF3F774860212716
:10021000316060B36471262721503795C6CF3F7790
:1002200040616127C1CF3F7740622127C4CF3F772C
:1002300040646127C9CF3F774068212700C08FCF36
:1002400030E43ABF0B500195C01BD040288121FDFE
:100250002DC019811F7740918D00141799F429360C
:1002600091F4009167000023F1F040917500442360
:10027000D1F4409367004091730040938D00C8E62D
:10028000D0E02BC02227209362006F914F913F91C5
:100290000AB706FD45CF0F910FBFCF91DF912F9188
:1002A0001F910F911895C1E6D0E016C0217059F347
:1002B00020916200222339F340917500442399F77D
:1002C0000093750020937400009176004BE0401B72
:1002D00040937600C0E6D0E001E022B32B7E20619F
:1002E00011B3146122BB11BB14E130E830FF2127A8
:1002F00022BB379547954C3FC0F530FF21273795F6
:1003000022BB47954C3FA8F530FF212737950000C9
:1003100022BB47954C3F78F530FF212737950000E9
:1003200022BB47954C3F48F530FF2127699122BBFE
:10033000379547954C3F18F530FF2127379522BB5D
:1003400047954C3F00F530FF21273795479522BB55
:100350004C3FD8F430FF21273795362F479522BBE5
:100360004C3FA8F40A9512F614C02127442722BB5B
:10037000C2CF2127C5CF2127CBCF2127D1CF2127FE
:10038000442722BBD7CF2127DACF2127DFCF212750
:10039000E5CF2B7E22BB6F914F913F9100E40ABFC6
:1003A000DF91CF9111B3022F206122BB1B7EDFBFF3
:1003B000DF912F91000011BB02BB1F910F91189587
:1003C00085B7836085BF8BB780648BBF8D9A939A06
:1003D0008B9A789408951F93CF93DF936091750063
:1003E000662309F480C080917600ECE0F0E0E81B21
:1003F000F109EF01C958DF4F81E0809363008091DC
:1004000074008D3209F061C01E818F8181111FEF50
:10041000E958FF4F8081807689F58981882321F40E
:100420001082198282E049C0853029F48A81809344
:100430007300959AB5C08630B1F482E08093630072
:100440008B81813019F1823029F1833009F0A8C005
:100450008A81882319F1813029F1823039F1833082
:1004600009F09EC027C0883019F481E0808325C040
:100470008A3009F095C0108281E01FC0CE01C0D043
:100480008F3FD9F493E09093630017C082E1CCE6EC
:10049000D0E013C082E1CEE7D0E00FC084E0C0E935
:1004A000D0E00BC086E1C6E3D0E007C086E1CCE433
:1004B000D0E003C08AE0C2E6D0E0181708F0182F99
:1004C000D0936500C093640005C0635011F0CE0165
:1004D0009BD010E01093660083EC8093680010922C
:1004E00067001092750080916700882309F04BC067
:1004F00080916300882309F446C09091680028E841
:1005000092279093680010916600193018F4112317
:1005100071F101C018E0833031F489E690E0612F79
:1005200071D0182F1FC02091640030916500813078
:1005300059F4D901C9E6D0E08D918993FD018A2F44
:10054000821B8117C8F30AC0F901A9E6B0E08491C3
:1005500031968D938E2F821B8117C8F3F09365001F
:10056000E093640080916600811B8093660089E6B9
:1005700090E0612FA9DD812F8D5F80936700183097
:1005800010F4109263008AE002C0815019F0849B3D
:10059000FCCF08C01092730010928D00959802C095
:1005A00080E08DCFDF91CF911F91089587B388614F
:1005B00087BB8FB5806A8FBD8FB582608FBD8EB5CA
:1005C00088618EBD8EB581608EBD8FE19EE495BD44
:1005D00084BD82E192E09BBD8ABD99BD88BD08952E
:1005E0006BE070E04AD08E5E9D4F9BBD8ABD089542
:1005F0006BE070E042D08E5E9D4F99BD88BD08953E
:1006000088E0089580E00895CF93DF93FC0169307E
:1006100061F5C098C19A238130E0205D3441828128
:1006200090E06AE070E029D0280F391F8781C82F39
:10063000D0E0C05DD441868190E06AE070E01DD0DA
:10064000C80FD91F858190E064E670E016D0C80F0E
:10065000D91F818190E064E670E00FD0820F931F74
:10066000BFDFCE01C5DFC19801C0B89ADF91CF913D
:1006700008959CDFA5DEAFDEFECF5527002480FF66
:1006800002C0060E571F660F771F6115710521F016
:1006900096958795009799F7952F802D0895F89452
:0206A000FFCF8A
:0206A200D25A2A
:00000001FF
