:1000000054C092C06BC06AC069C068C067C066C097
:1000100065C064C063C062C061C060C05FC05EC0D4
:100020005DC05CC05BC000CDD914F13C28E5A16C7B
:1000300078B5509D894420034400690063006B003B
:1000400020005300740072006500650066006C00BB
:1000500061006E00640022035500530042007400EA
:1000600069006E0079002000540065006D0070008A
:100070006C006100740065000A033000300030003D
:10008000310012010101FF0000086666010006014F
:100090000102030109021200010100801909040094
:1000A0000000FF0000000403090411241FBECFED6F
:1000B000CDBF10E0A0E6B0E0EEEAF5E002C00590AA
:1000C0000D92A236B107D9F710E0A2E6B0E001C068
:1000D0001D92AE38B107E1F765D267C291CFDC015E
:1000E0009FEF8FEF46E2F0E018C02D918227E82FB6
:1000F000EF70E40F3591E82FE295892F932F31703F
:10010000E327EF709295392F9F70307E8327E40F9D
:10011000359193273170932783276A9532F780951D
:1001200090958D939D9308950F931F932F93DF9335
:10013000CF930FB70F938299FECF82990BC082990C
:1001400009C0829907C0829905C0829903C000E462
:100150000ABFACC0C0917600DD27C958DF4F0BE065
:1001600014E124E0829BE9CF3F934F936F9360B3F8
:1001700030E803C060B3432B4993442764712627BA
:10018000215020B32471A9F137953C3FA0F5622797
:10019000615060B3647137953C3F98F52627215034
:1001A000379520B324713C3F90F562276150379515
:1001B0003C3F60B36471A0F52627215037953C3F42
:1001C000C8F520B324716227615037953C3FB0F5E4
:1001D0000A9560B37AF064712627215037953C3F29
:1001E00088F520B324716227615037953C3F10F2A7
:1001F0002DC031C052C0612720B324713F774160C8
:10020000C6CF3F77426060B364712127C7CF3F7785
:100210004460612720B32471622761503795C8CFAD
:100220003F7748602127316060B3647126272150F1
:100230003795C6CF3F7740616127C1CF3F77406296
:100240002127C4CF3F7740646127C9CF3F774068FB
:10025000212700C08FCF30E43ABF0B500195C01B5F
:10026000D040288121FD2DC019811F7740918D003C
:10027000141799F4293691F4009167000023F1F0E6
:10028000409175004423D1F440936700409173007E
:1002900040938D00C8E6D0E02BC022272093620057
:1002A0006F914F913F910AB706FD45CF0F910FBF58
:1002B000CF91DF912F911F910F911895C1E6D0E05A
:1002C00016C0217059F320916200222339F3409126
:1002D0007500442399F700937500209374000091F2
:1002E00076004BE0401B40937600C0E6D0E001E092
:1002F00022B32B7E206111B3146122BB11BB14E128
:1003000030E830FF212722BB379547954C3FC0F599
:1003100030FF2127379522BB47954C3FA8F530FF8A
:1003200021273795000022BB47954C3F78F530FFD9
:1003300021273795000022BB47954C3F48F530FFF9
:100340002127699122BB379547954C3F18F530FF1F
:100350002127379522BB47954C3F00F530FF2127D9
:100360003795479522BB4C3FD8F430FF212737956E
:10037000362F479522BB4C3FA8F40A9512F614C0BD
:100380002127442722BBC2CF2127C5CF2127CBCF8E
:100390002127D1CF2127442722BBD7CF2127DACF4E
:1003A0002127DFCF2127E5CF2B7E22BB6F914F91F5
:1003B0003F9100E40ABFDF91CF9111B3022F20617A
:1003C00022BB1B7EDFBFDF912F91000011BB02BB60
:1003D0001F910F91189585B7836085BF8BB7806497
:1003E0008BBF8D9A939A8B9A789408951F93CF938D
:1003F000DF9380917500882309F477C0809176009F
:1004000091E090936300909174009D3209F063C075
:10041000ECE0F0E0E81BF109EF01C958DF4F1E8165
:100420008F8181111FEFE958FF4F8081807689F518
:100430008981882321F41082198282E044C08530AA
:1004400029F48A8180937300959AA4C08630B1F410
:1004500082E0809363008B818130F1F0823001F182
:10046000833009F097C08A818823F1F0813001F14F
:10047000823011F1833009F08DC022C0883019F428
:1004800081E0808320C08A3009F084C0108281E03E
:100490001AC0CE0185D017C082E1C2E8D0E013C0F7
:1004A00082E1C4E9D0E00FC084E0C6EAD0E00BC02E
:1004B00080E2C6E3D0E007C082E2C6E5D0E003C038
:1004C0008AE0C8E7D0E0181708F0182FD09365002D
:1004D000C093640001C010E01093660083EC809329
:1004E0006800109267001092750080916700882361
:1004F00009F043C020916300222309F43EC080919B
:10050000680098E889278093680010916600193088
:1005100018F4112331F101C018E08091640090912A
:100520006500213059F4DC01C9E6D0E02D91299312
:10053000FD012A2F281B2117C8F30AC0FC01A9E6D8
:10054000B0E0249131962D932E2F281B2117C8F34C
:10055000F0936500E093640080916600811B8093B6
:10056000660089E690E0612FBADD812F8D5F809370
:100570006700183011F0109263008AE002C08150C9
:1005800019F0849BFCCF08C01092730010928D006C
:10059000959802C080E099CFDF91CF911F91089587
:0E05A00088E0089518DF22DFFECFF894FFCF29
:0205AE00D25A1F
:00000001FF
